:020000040000FA
:10000000B80800209D010000F1150000B5150000A2
:1000100000000000000000000000000000000000E0
:10002000000000000000000000000000F9150000C2
:100030000000000000000000F31500006117000040
:100040009D180000BB150000F5150000B11300005D
:1000500035170000B3130000B513000000000000C6
:100060000000000000000000000000000000000090
:1000700089060000E5080000B1170000B317000072
:10008000B31400000000000000000000B9150000DB
:10009000E9080000A90A0000C90A0000B71500001D
:1000A00000000000F715000000000000AD17000080
:1000B000AF1700000000000000000000B5010000C4
:1000C00000F002F800F03EF80CA030C80838241800
:1000D0002D18A246671EAB4654465D46AC4201D180
:1000E00000F030F87E460F3E0FCCB6460126334274
:1000F00000D0FB1AA246AB4633431847781C0000D9
:10010000981C0000103A02D378C878C1FAD8520778
:1001100001D330C830C101D504680C6070470000BD
:100120000023002400250026103A01D378C1FBD813
:10013000520700D330C100D50B6070471FB51FBDFB
:1001400010B510BD00F036FA1146FFF7F7FF01F0C9
:10015000B5FB00F04EFA03B4FFF7F2FF03BC00F06A
:1001600055FA000070B505460C46164602E00FCC65
:100170000FC5103E102EFAD2082E02D303CC03C5B1
:10018000083E042E07D301CC01C5361F03E02178B9
:100190002970641C6D1C761EF9D270BD094908686F
:1001A00085460948804709480047FEE7FEE7FEE725
:1001B000FEE7FEE7FEE7000005480649064A074B52
:1001C000704700000000000071170000C10000002F
:1001D000B8040020B8080020B8060020B8060020A7
:1001E00001E004C0091F0429FBD28B0701D502805E
:1001F000801CC90700D00270704700290BD0C307CC
:1002000002D00270401C491E022904D3830702D584
:100210000280801C891EE3E70022EEE70022DFE770
:10022000002203098B422CD3030A8B4211D30023F3
:100230009C464EE003460B433CD4002243088B42CD
:1002400031D303098B421CD3030A8B4201D394465A
:100250003FE0C3098B4201D3CB01C01A524183094D
:100260008B4201D38B01C01A524143098B4201D307
:100270004B01C01A524103098B4201D30B01C01A32
:100280005241C3088B4201D3CB00C01A52418308AC
:100290008B4201D38B00C01A524143088B4201D3D9
:1002A0004B00C01A5241411A00D201465241104639
:1002B00070475DE0CA0F00D04942031000D34042AE
:1002C000534000229C4603098B422DD3030A8B42E4
:1002D00012D3FC22890112BA030A8B420CD3890182
:1002E00092118B4208D3890192118B4204D3890168
:1002F0003AD0921100E08909C3098B4201D3CB01A6
:10030000C01A524183098B4201D38B01C01A52415A
:1003100043098B4201D34B01C01A524103098B425E
:1003200001D30B01C01A5241C3088B4201D3CB0049
:10033000C01A524183088B4201D38B00C01A52412C
:10034000D9D243088B4201D34B00C01A5241411A03
:1003500000D20146634652415B10104601D3404231
:10036000002B00D54942704763465B1000D34042E2
:1003700001B50020C046C04602BD704770477047B7
:10038000F0B5FF252D04C609C209FF2704462E40FB
:100390000137CB093E4348402A402B400746002AFC
:1003A0006BD0002B69D0AA4267D0AB4265D0002841
:1003B00000DA32460125ED0529432C4309022002CB
:1003C000090AD21A4B0C7F24E31A434C000A7C44DE
:1003D000E35C7D242404121914145B00A2188842E3
:1003E00001D3521C00E0400049420C465C432411FA
:1003F0005C43DB016415E318040A5C43C502200D6D
:100400000C4644436419250A5D432303EC0C0D4656
:10041000654300030019EB184C42A34201D35B185B
:10042000401CD4052018002B07D05B00C91804D34A
:10043000401C002901D1400840003F2189048A4224
:1004400009D3002A08DC1106090F04D0032149074B
:100450004018C00FC007F0BD0122410012068918E4
:100460007F2252069142F6D205214907C84201D5A2
:100470009010F0BDFF20C005F0BD002F00DA32461D
:100480001648AA4207D2AB4205D21902090E17D06C
:10049000F80FC007F0BDFF2563002D06AB42F9D869
:1004A0004900A942F6D8AB4201D1A942F2D0A942F3
:1004B00001D1002101E061004908D0050843F0BDE9
:1004C0001102090EFBD0FF200243D005F0BD0A4601
:1004D0000146104654E70000621900000000C07F8A
:1004E0000102C21504D00123DB071943002A0ADBED
:1004F0009E239A1A02D40846D0407047FF2241003A
:100500001206914201D900207047C017C0437047BE
:100510001F22030C02D10F2200041CD0030E01D1B4
:100520000002083A030F01D10001121F830F01D10D
:100530008000921E002801DB4000521ED205511897
:10054000021251181922904004D3491C002801D1ED
:100550004908490008467047C10FC90700D040420A
:10056000012292071143D3E701218907D0E7000058
:1005700010B5FF22C30D134009D05A4007D0914255
:1005800005DA5C42A14202DDC905081810BDC40F9E
:10059000E407002B06D0002A06D0002902DBFF204A
:1005A000C0050443204610BD4102FCD0004810BDE8
:1005B0000000C07F754600F025F8AE46050069468C
:1005C0005346C008C000854618B020B5FFF7F4FDBB
:1005D00060BC00274908B6460026C0C5C0C5C0C5D6
:1005E000C0C5C0C5C0C5C0C5C0C5403D49008D46D9
:1005F000704710B50446C046C0462046FFF7ABFD25
:1006000010BD000000487047540400200149182024
:10061000ABBEFEE726000200704700000149002043
:100620008863704740000040012080070168012274
:100630001143016010467047002802D00149096843
:100640000180704740000040002802D001494968FD
:100650000180704740000040002802D001498968AD
:100660000180704740000040002802D00149C9685D
:100670000180704740000040002802D0014909690C
:10068000018070474000004070470000F8B5044604
:100690000068002809D0102807D0202805D030286D
:1006A00003D05D2147A001F007F94F48816B4F4A05
:1006B00011438163A16820686268014301208007BB
:1006C0000368FF25F935AB431A4311430160C16A42
:1006D000227C090909011207120F1143C162C16A84
:1006E000237EF0221B0791431B0E1943C162C16A8E
:1006F000258C13012D0799432D0D2943C162C16A31
:100700001502A943258D2D072D0C2943C162C16A0D
:10071000268E15033607A943360B3143C162C16AE1
:10072000278F16043F07B1433F0A3943C162C16AAC
:100730001705B943276C3F073F093943C162C16AB6
:10074000A76C090109093F073943C162816A277B08
:10075000090909013F073F0F39438162816A9143CB
:10076000227D1207120E11438162816A227F994312
:100770001207120D11438162816A1A019143A28C02
:100780001207120C11438162816AA28DA9431207DC
:10079000120B11438162816AA28EB1431207120AC1
:1007A00011438162816A1A049143A28F12071209D0
:1007B00011438162816A626C0901090912071143C0
:1007C0008162F8BD2E2E5C2E2E5C4C6962726172C5
:1007D0006965735C7372635C637733326C3031309C
:1007E0005F6164632E6300000040004001005A5ABC
:1007F00010B50124A40700280AD0012804D0FF2145
:100800000B3106A001F058F8A0680121084302E06E
:10081000A06840084000A06010BD00002E2E5C2E95
:100820002E5C4C69627261726965735C7372635CA1
:10083000637733326C3031305F6164632E63000064
:1008400010B594B04C216846FFF7E8FC2248016BD4
:10085000224A11430163016B204A103211430163A4
:10086000816B1E4A0F3A114381631D48C1690822FA
:100870001143C161C16910231943C161C1692023BA
:100880001943C161C16940242143C16180050168E8
:10089000022421430160801502900B200490002067
:1008A00001920C210691039000930D21059008916F
:1008B0000F2107900A9109900A210B900C9168462C
:1008C000FFF7E4FEFFF7AAFEFFF7AEFE0120FFF7F9
:1008D0008FFF14B010BD00000040004010005A5AB5
:1008E000000100487047000010B5554C012120461A
:1008F00000F056F9002870D00121204600F0E6F8FB
:10090000504C0021E06B401CE0630A2809D3E163EE
:10091000A069401CA061E069401CE0612078401C97
:100920002070A06B0122401CA063022801D3226228
:10093000A163A079012841D02079401CC0B2207168
:10094000082808D32171E078401CC0B2E070032869
:1009500001D3E170A27100F08BFAA079012830D0A8
:100960003949E078394A095C525CE2712179CA4020
:10097000D20711D000292AD001292BD002292DD04D
:1009800003292ED004292FD0052930D0062931D0B3
:10099000072954D100F0B7FB207907284FD1E07820
:1009A00001282AD0002833D0022836D0012827D0A9
:1009B000022844D16078012835D03AE02171A17134
:1009C000C9E7A0780128E7D100F0D3FCE4E700F004
:1009D0005CFAE1E700F0A9FADEE730E000F0F4FAB3
:1009E000DAE700F040FBD7E700F0D6FBD4E700F0F1
:1009F00024FCD1E700F06FFCCEE76078042805D036
:100A0000607800281BD16079012818D101200BE003
:100A10006078012813D1002006E060780228F5D024
:100A20000328F3D0C6E7022000F06DFBE07802282F
:100A300005D16078032802D1022000F064FB10BDCC
:100A4000004800400400002059000020440000201D
:100A50001CB500201049009001904A6B0F4B1A43BF
:100A60004A6372B601210E4A0905116062B66946F1
:100A70004880FF20F530888010200A4C08802046EE
:100A800000F002F901221146204600F0BDF80121D4
:100A9000204600F04DF81CBD0040004004005A5AAA
:100AA00000E100E00048004010B5064C012120465E
:100AB00000F076F8002803D00121204600F006F867
:100AC00010BD0000404800407047000070B504466B
:100AD0000D480D4684420BD00B484030844207D06D
:100AE00009488030844203D0922108A000F0E4FE3F
:100AF000012D05D0402D03D0932104A000F0DCFE91
:100B0000A069A843A06170BD004800402E2E5C2E55
:100B10002E5C4C69627261726965735C7372635CAE
:100B2000637733326C3031305F6274696D2E6300ED
:100B300070B5044610480D4684420BD00E48403034
:100B4000844207D00C488030844203D063210BA03C
:100B500000F0B2FE002D09D0012D03D0642107A0C2
:100B600000F0AAFE20680121084302E02068400846
:100B70004000206070BD0000004800402E2E5C2E1A
:100B80002E5C4C69627261726965735C7372635C3E
:100B9000637733326C3031305F6274696D2E63007D
:100BA00070B504460E480D4684420BD00C484030C8
:100BB000844207D00A488030844203D0822109A0B1
:100BC00000F07AFE012D05D0402D03D0832105A031
:100BD00000F072FE2069284000D0012070BD0000A6
:100BE000004800402E2E5C2E2E5C4C6962726172B1
:100BF0006965735C7372635C637733326C30313078
:100C00005F6274696D2E630070B504461448164621
:100C10000D4684420BD012484030844207D0104821
:100C20008030844203D072210EA000F045FE002ED9
:100C300005D0012E03D073210AA000F03DFE012D46
:100C400005D0402D03D0742106A000F035FEE068E9
:100C5000002E01D0284300E0A843E06070BD0000F2
:100C6000004800402E2E5C2E2E5C4C696272617230
:100C70006965735C7372635C637733326C303130F7
:100C80005F6274696D2E630070B5044622480D469C
:100C900084420BD020484030844207D01E48803028
:100CA000844203D049211DA000F006FE6888002878
:100CB00009D0032807D0012805D0022803D04A21F3
:100CC00016A000F0F9FD28881D49401E884203D96E
:100CD0004B2112A000F0F0FDE888082805D000287C
:100CE00003D04C210DA000F0E7FD1648416B164AD9
:100CF00011434163A888E0622888A0622068082127
:100D00008843E98808432060A0686988C008C0005B
:100D10000843A06070BD0000004800402E2E5C2EED
:100D20002E5C4C69627261726965735C7372635C9C
:100D3000637733326C3031305F6274696D2E6300DB
:100D4000FEFF00000040004004005A5AF8B5454834
:100D500000274178444C00291CD0426B0346521CAA
:100D600042631E695D69052A0CD94763002D04D0D2
:100D7000012915D00121417012E0022922D002215F
:100D800041701FE001290BD002291BD0032934D068
:100D900004294ED00A2121706170A1708770F8BDBE
:100DA000064664212846FFF73BFA20700A212846B0
:100DB000FFF736FA0D460A21FFF732FA6170A57087
:100DC000B770F8BD0546642E04D364213046FFF7A2
:100DD00027FA00E00A20207064213046FFF720FA4D
:100DE00008460A21FFF71CFA60700A213046FFF717
:100DF00017FAA1700120A870F8BD75433235074677
:100E000005631A492846FFF70BFA20707D2608462D
:100E1000F6003146FFF704FA607031462846FFF7C6
:100E2000FFF908466421FFF7FBF9A0700120B870B4
:100E3000F8BD05460089FFF797FB00F03BFB06462F
:100E40006421E862FFF7ECF9207008460A21FFF7F9
:100E5000E7F960700A213046FFF7E2F9A170AF7040
:100E6000F8BD0000040000205900002010270000F9
:100E70000EB53F20009010200190802002900920A4
:100E80006946C00600F0B0FA0EBDFEB580210291A1
:100E9000092502212024ED062126002818D001284A
:100EA0002BD0022840D1009469462846019400F0D6
:100EB0009BFA0421009101966946284600F094FAB5
:100EC00001222021284600F0EEFA0022042128E029
:100ED000009101946946284600F086FA01210091AC
:100EE00001966946284600F07FFA01220221284631
:100EF00000F0D9FA0022012113E000910196694621
:100F0000284600F071FA08210091019469462846AC
:100F100000F06AFA01220821284600F0C4FA0022F3
:100F20000221284600F0BFFAFEBDFEB509240121CA
:100F30002125E4062026002818D001282BD00228DD
:100F400041D1009101966946204600F04DFA0821F2
:100F5000009101956946204600F046FA01221146AB
:100F6000204600F0A0FA0022082129E00091019516
:100F70006946204600F038FA04210091019669463E
:100F8000204600F031FA01220421204600F08BFABD
:100F90000022012114E010200090694601962046AD
:100FA00000F022FA0221009101956946204600F0E6
:100FB0001BFA01221021204600F075FA00220221BE
:100FC000204600F070FAFEBDFEB50146092021253D
:100FD000C00608262024002919D0022701292ED076
:100FE00002292BD1019469460097044600F0FCF9D0
:100FF000694620460096019500F0F6F9012202218B
:10100000204600F050FA00220821204614E0012179
:10101000019500916946054600F0E6F969462846C3
:101020000096019400F0E0F901220821284600F022
:101030003AFA00220121284600F035FAFEBD00945C
:1010400001946946044600F0CFF9694620460097AE
:10105000019500F0C9F901222021204600F023FA71
:1010600000220221D1E7FEB50146092001262124F4
:10107000C00610272025002919D001292BD00229CC
:1010800040D1019569460097054600F0ADF9082169
:10109000009101946946284600F0A6F9012210212A
:1010A000284600F000FA00220821284628E0019492
:1010B00069460096044600F097F969462046009775
:1010C000019500F091F901221021204600F0EBF982
:1010D0000022012113E00421019400916946044695
:1010E00000F082F9694620460096019500F07CF9EF
:1010F00001221146204600F0D6F9002204212046A4
:1011000000F0D1F9FEBDFEB509242021E406212519
:10111000002818D0102601282ED002282BD10091AB
:1011200001916946204600F05FF969462046009625
:10113000019500F059F901222021204600F0B3F971
:101140000022102114E004200191009069462046FD
:1011500000F04AF90821009101956946204600F007
:1011600043F901220421204600F09DF900220821C4
:10117000204600F098F9FEBD0220019100906946DA
:10118000204600F031F9694620460096019500F0AE
:101190002BF901220221D0E7FEB580210925212665
:1011A000ED0620240291002819D001282CD0022815
:1011B00042D10820009069460194284600F014F9B5
:1011C0001021009101966946284600F00DF9012290
:1011D0000821284600F067F90022102129E00120AB
:1011E000009069460196284600F0FEF80094694692
:1011F0002846019400F0F8F801222021284600F04A
:1012000052F90022012114E0022000906946019465
:10121000284600F0E9F80421009101966946284625
:1012200000F0E2F801220221284600F03CF90022F9
:101230000421284600F037F9FEBDFEB5092420211F
:10124000E4062125002818D0082601282BD00228E2
:1012500040D1009101916946204600F0C5F86946E9
:1012600020460096019500F0BFF80122202120467B
:1012700000F019F90022082129E0012001910090D5
:101280006946204600F0B0F80221009101956946B8
:10129000204600F0A9F801221146204600F003F98B
:1012A0000022022113E0019100966946204600F0D9
:1012B0009BF80421009101956946204600F094F8BE
:1012C00001220821204600F0EEF8002204212046E9
:1012D00000F0E9F8FEBDFEB5092404262021E4064D
:1012E0002125002819D0102701282BD002283FD112
:1012F0000120019100906946204600F075F869468A
:1013000020460097019500F06FF801221146204613
:1013100000F0C9F80022102127E0019100966946EB
:10132000204600F061F802210091019569462046AF
:1013300000F05AF801220421204600F0B4F80022FF
:10134000022112E0019100976946204600F04CF816
:10135000694620460096019500F046F801221021CA
:10136000204600F0A0F800220421204600F09BF85F
:10137000FEBD3EB50420009020200924E406019023
:101380006946204600F030F810210091212101919A
:101390006946204600F028F801220421204600F08A
:1013A00082F800221021204600F07DF83EBD7047F3
:1013B00070477047704700000EB50848016B084A37
:1013C00011430163802002901120019001200090C0
:1013D0006946044800F008F80EBD000000400040D7
:1013E00020005A5A00010048172210B5D206294B96
:1013F000821803D0FF3A012A08D102E01A6B264C6A
:1014000002E01A6B244C103422431A634A68002A03
:10141000C26911D00B689A43C2610A79D206026888
:101420000B682AD51A43026002690B689A4302616D
:101430004A68112A04D007E009680A43C26110BD56
:1014400002690B681A430261426A0B689A4342625E
:10145000826A0B689A4382628B6881229A4303D125
:10146000426A0B681A4342628B6882229A43E6D131
:10147000826A09680A43826210BD9A4302604A6820
:10148000202A4268096802D00A43426010BD8A439C
:10149000FBE700000040004010005A5A006D084071
:1014A00000D001207047012A01D081657047C165D5
:1014B0007047704770B5E6B00546224900F0FCFA67
:1014C00004462148294600F09FFA2146FEF758FFBE
:1014D000FFF706F80546FF220024642695321B49D3
:1014E0006846FEF73FFE00986A46A84202D20020F6
:1014F00066B070BDFF2091301058A84202D97D20FF
:10150000C000F5E730194008810051588D4201D2E2
:10151000044602E08D4211D90646301B0128F1D85D
:10152000A000B100105851580A22411A401B5043E4
:10153000FEF776FE0A214C430019D9E70A214843F9
:10154000D6E7000000F07F4500401C46A01B0000CD
:1015500010B5154C1549207840004018FFF76CF87D
:101560002078134940004018FFF76EF820781049A2
:101570004000C8394018FFF76FF820780B49400049
:10158000C8394018FFF770F8207808494000C83182
:101590004018FFF771F82078401CC0B22070642812
:1015A00001D30020207010BD5C000020C402002088
:1015B00034010020FEE770477047704770B5002681
:1015C00035460A4C324609E05300C35A9E19AB42D5
:1015D00000D91D46A34200D21C46521C8A42F3D3B6
:1015E0002819301A891EFEF71BFE70BDFFFF000090
:1015F00070477047704770477047000010B5032070
:10160000C00200F013F80548016B054A114301635D
:1016100004480549408A486210BD0000004000406F
:1016200002005A5AC007100004000020F8B5012734
:10163000324DFF02324E0446B8423BD0B0148442D1
:1016400038D00320C002844234D07014844231D098
:101650000520C00284422DD003200003844229D0FB
:101660000720C002844225D03014844222D00920B1
:10167000C00284421ED00520000384421AD00B20F1
:10168000C002844216D003204003844212D00D20B1
:10169000C00284420ED00720000384420AD00F20EB
:1016A000C002844206D0002C0DD0FF211B3115A0B2
:1016B00000F002F9BC4206D13068400703D1B0689F
:1016C0001A490843B0601A4800884005400D20437D
:1016D000B061706815490F390843706001E06D1EF4
:1016E000ADB2B069000402D4002DF8D103E0002DA2
:1016F00001D00020F8BD0120F8BD0000FFFF000070
:10170000004000402E2E5C2E2E5C4C69627261728D
:101710006965735C7372635C637733326C3031304C
:101720005F7379736374726C2E63000010005A5AF1
:10173000C0071000704700000EB508490A6B102062
:1017400002430A63019080203F210290009109200A
:101750006946C006FFF748FE0EBD0000004000408D
:101760000248816802788918816070476000002013
:101770000A4B188841050A48490D8269D20AD202EB
:101780000A4382615988026A8905890D920A920288
:101790000A4302620449034808607047C00710000A
:1017A0000040004000093D000000002070477047E5
:1017B00070477047F8B564212C48FFF7FFFE2C4CAA
:1017C000642160812B48FFF7F9FEA08164212A483B
:1017D000FFF7F4FEE08164212848FFF7EFFEA062E6
:1017E00064212748FFF7EAFE20816089FEF7BCFEEE
:1017F000244E3146FEF7C4FD234F394600F004F96C
:10180000224D2946FEF7BCFD214900F0FDF8214993
:1018100000F0B4F82946FEF7B3FDFEF761FE80B292
:1018200060810A21401DFEF7FBFC2061A089A16AAE
:10183000884201D9401A00E0081AFEF795FE3146A9
:10184000FEF79EFD394600F0DFF82946FEF798FDC9
:101850000221FEF78DFE1049884202DD00F038F9C2
:1018600000E00020FEF73CFE6061F8BD6C00002047
:101870000400002034010020FC010020C4020020EC
:101880008C03002000F07F4500404E4500002041C1
:101890000000B8420000A0400000E040704730B4B3
:1018A0007446641E2578641CAB4200D21D46635DFD
:1018B0005B00E31830BC18477047000000273C4627
:1018C000FFF79CFEFFF778FDFEF7BAFF294D0026D3
:1018D000AE61EE61FFF7BCF8286A012803D12E62E1
:1018E000FFF736FE7F1C642FF6D3FFF763FFFFF789
:1018F00023FF01276F70FFF729FA286A012802D118
:101900002E62FFF725FE01211B48FFF7C7FD0128C6
:1019100002D0002C03D021E000242E701EE0287895
:101920000A281BD301211448FFF7B8FD002815D160
:10193000687801240300FFF7B2FF050406080B0DC9
:101940000E006F7007E0022000E00320687002E0E4
:101950000420FBE76E706E63FFF7F8F9E869C828AA
:10196000CBD3FFF727FFFFF7F1F96879381A6871D1
:10197000EE61C2E7040000200001004870B50125B7
:101980000400ED074C4020D4441A01D2001B091971
:10199000C60D4B00F2B2FF2A29D01B0E2CD000023C
:1019A0000C02D31A2C43DC402843051910D2280A14
:1019B00002D3401C6D0611D0761EF6058019FF2A51
:1019C00000DA70BDC00DC00570BD694000F086F83A
:1019D00001200543C541521C761CE8E764089C4081
:1019E000C90161408900E7D10124A043E4E71B0E4F
:1019F000440200D0034870BD002AFCD1C00FC007CC
:101A000070BD00BF0000C07F70B5420064414B0054
:101A10005C41120E39D01B0E38D0FF2A3CD0FF2B70
:101A20003AD040024902400A490A060045184E438E
:101A3000000A090AD2184843ED017F3A0104731ADB
:101A40004019190C4318990F04D001215B0849076C
:101A50005B1A521CD80904D3401CF50301D19D0622
:101A600007D0FF2A08D2D50506D0E4072043401945
:101A700070BD0125A843F4E7002A01DCE00770BD32
:101A80002402FF202043C00570BD1B0EFF2A03D097
:101A9000FF2B01D0E00770BDFF2645003606B5429A
:101AA00006D84D00B54203D8D218FF2A00D0E7E788
:101AB000004870BD0000C07F70B50125ED0768408B
:101AC00004004C4002D5694000F008F8FFF75CFFC5
:101AD00070B501250400ED074C4022D4441A02D20F
:101AE0006C40001B0919C60D4B00F2B2FF2A4BD007
:101AF0001B0E50D000020C02D31A2C43DC40A8432A
:101B0000051B05D5AD0019D36D08761E521E37D0C2
:101B1000F605280A01D2801970BD70416D0603D008
:101B200070BD6940FFF730FF9C40090261404900E9
:101B300001D0401E70BD0124A04370BD6D081DD0B2
:101B400001202B0C01D12D0410302B0E01D12D02C0
:101B500008302B0F01D12D01001DAB0F01D1AD00BD
:101B6000801CEB0F01D16D00401C6D00361A121A5B
:101B7000680AF5054019012A02DB70BD002070BD1E
:101B8000C036300AC00770BD1B0E440201D1FF2BC6
:101B900000D1024870BD002AF0D070BD0000C07FA7
:101BA0002E800000CB790000C4730000126E00008C
:101BB000B068000099630000C75E0000385A00005A
:101BC000E8550000D3510000F64D00004E4A0000D9
:101BD000D74600008E430000724000007E3D0000AA
:101BE000B13A000009380000833500001E330000C0
:101BF000D8300000AF2E0000A22C0000AE2A00005A
:101C0000D42800001027000062250000CA2300002D
:101C100045220000D2200000711F0000211E00009C
:101C2000E11C0000B01B00008D1A000078190000B4
:101C30006F18000073170000821600009C1500004A
:101C4000C1140000EF13000027130000671200000A
:101C5000B1110000021100005B100000BB0F00007A
:101C6000220F0000900E0000040E00007E0D000008
:101C7000FE0C0000830C00000E0C00009D0B000009
:101C8000310B0000C90A0000660A0000070A0000C4
:101C9000AC0900005409000000090000B008000071
:101CA0006208000018080000D10700008C0700003F
:101CB0004A0700000B070000CE0600009406000053
:101CC0005C06000026060000F2050000C0050000CA
:101CD0009005000062050000350500000A050000BF
:101CE000E1040000B9040000930400006E04000049
:101CF0004B0400002904000008040000E803000071
:101D0000C9030000AC0300008F030000740300004F
:101D1000590300003F030000270300000F030000E9
:101D2000F8020000E2020000CC020000B70200004E
:101D3000A30200008182838485868788898B8C8DAD
:101D40008E8F919293959697999A9C9D9FA0A2A30E
:101D5000A5A7A8AAACAEB0B2B3B5B7B9BCBEC0C255
:101D6000C5C7C9CCCED1D4D7D9DCDFE2E6E9ECF0E7
:101D7000F3F7FAFE941D0000000000206C00000044
:101D800004010000001E00006C0000204C08000050
:101D90002001000000093D000000000000000000DC
:101DA0000000000000000000000000000000000033
:101DB0000000000000000000000000000000000023
:101DC0000000000000000000000000000000000013
:101DD00000000000000000003F065B4F666D7D07BD
:101DE0007F6F00795C383E778000000000000000C3
:101DF00000000000010000000400000000000000DE
:04000005000000C136
:00000001FF
